:020000040000FA
:10000000F83E0020150200001D0200001F02000043
:1000100000000000000000000000000000000000E0
:1000200000000000000000000000000021020000AD
:1000300000000000000000009B010000D517000038
:10004000270200002702000027020000270200000C
:1000500027020000270200002702000027020000FC
:1000600027020000270200002702000027020000EC
:1000700027020000270200002702000027020000DC
:1000800027020000270200002702000027020000CC
:1000900027020000270200002702000027020000BC
:1000A00027020000270200002702000027020000AC
:1000B00027020000270200002702000000000000C5
:1000C00000F002F800F03EF80CA030C80838241800
:1000D0002D18A246671EAB4654465D46AC4201D180
:1000E00000F030F87E460F3E0FCCB6460126334274
:1000F00000D0FB1AA246AB4633431847242F00001A
:10010000442F0000103A02D378C878C1FAD85207B9
:1001100001D330C830C101D504680C6070470000BD
:100120000023002400250026103A01D378C1FBD813
:10013000520700D330C100D50B6070471FB51FBDFB
:1001400010B510BD00F09CF91146FFF7F7FF01F064
:10015000BFFB00F0B4F903B4FFF7F2FF03BC00F0FB
:10016000BBF90000084B19680868203080F3098843
:10017000022080F31488BFF36F8F3FBCAE4608BCEB
:1001800004BC62B61847000000000020EFF31080A6
:1001900072B6704780F310887047EFF309800E4BFA
:1001A0001A6820381060F0C044464D4656465F46F7
:1001B000F0C008B572B602F00FFA62B60CBC116856
:1001C00008681030F0C8A046A946B246BB4680F386
:1001D00009882038F0C818470000002070B505468F
:1001E0000C46164602E00FCC0FC5103E102EFAD278
:1001F000082E02D303CC03C5083E042E07D301CC3E
:1002000001C5361F03E021782970641C6D1C761E21
:10021000F9D270BD0748804707480047FEE7FEE770
:10022000FEE7FEE7FEE7FEE704480549054A064B00
:1002300070470000F9170000C1000000F82C0020F2
:10024000F83E0020F82E0020F82E0020F8B5042AF1
:100250002CD3830712D00B78491C0370401C521E0C
:1002600083070BD00B78491C0370401C521E830778
:1002700004D00B78491C0370401C521E8B079B0F47
:1002800005D0C91ADF002023DE1B08C90AE0FFF7EA
:10029000A5FFF8BD1D4608C9FD401C46B4402C43CF
:1002A00010C0121F042AF5D2F308C91A521EF0D446
:1002B0000B78491C0370401C521EEAD40B78491C71
:1002C0000370401C012AE4D409780170F8BDD2B251
:1002D00010B513029A1813049A1800F0BEF810BD56
:1002E000002203098B422CD3030A8B4211D3002333
:1002F0009C464EE003460B433CD4002243088B420D
:1003000031D303098B421CD3030A8B4201D3944699
:100310003FE0C3098B4201D3CB01C01A524183098C
:100320008B4201D38B01C01A524143098B4201D346
:100330004B01C01A524103098B4201D30B01C01A71
:100340005241C3088B4201D3CB00C01A52418308EB
:100350008B4201D38B00C01A524143088B4201D318
:100360004B00C01A5241411A00D201465241104678
:1003700070475DE0CA0F00D04942031000D34042ED
:10038000534000229C4603098B422DD3030A8B4223
:1003900012D3FC22890112BA030A8B420CD38901C1
:1003A00092118B4208D3890192118B4204D38901A7
:1003B0003AD0921100E08909C3098B4201D3CB01E5
:1003C000C01A524183098B4201D38B01C01A52419A
:1003D00043098B4201D34B01C01A524103098B429E
:1003E00001D30B01C01A5241C3088B4201D3CB0089
:1003F000C01A524183088B4201D38B00C01A52416C
:10040000D9D243088B4201D34B00C01A5241411A42
:1004100000D20146634652415B10104601D3404270
:10042000002B00D54942704763465B1000D3404221
:1004300001B50020C046C04602BD704770477047F6
:1004400001E004C0091F0429FBD28B0701D50280FB
:10045000801CC90700D00270704700290BD0C30769
:1004600002D00270401C491E022904D3830702D522
:100470000280801C891EE3E70022EEE70022DFE70E
:10048000754600F025F8AE46050069465346C0089B
:10049000C000854618B020B5FFF7C6FE60BC002737
:1004A0004908B6460026C0C5C0C5C0C5C0C5C0C540
:1004B000C0C5C0C5C0C5403D49008D46704710B598
:1004C0000446C046C0462046FFF745FE10BD00006A
:1004D00000487047982C002001491820ABBEFEE769
:1004E00026000200704700000146064A10680623F5
:1004F00002469A43104606220A401043014A106001
:100500007047000000280140012806D1064909680B
:1005100001221143044A116005E0034909684908B2
:100520004900014A11607047002801407FB5064626
:100530000D4614466A462946304600F073FB009883
:10054000A84227D16846C079002823D1E007C00F10
:10055000002803D16846407900281BD1E007C00F6E
:10056000002803D068464079012813D1022020409A
:10057000002803D16846807900280BD10220204052
:10058000002803D068468079012803D168460079A5
:1005900002281DD0029500206946C873E007C00FED
:1005A000002801D1487302E0012069464873022007
:1005B0002040002802D16946887302E00120694684
:1005C000887302206946087302A9304600F0ACFB2C
:1005D0007FBD02461068884202D01160012070473A
:1005E0000020FCE700B507490748FFF7F2FF05497F
:1005F0000548001DFFF7EDFF024903480830FFF7EB
:10060000E8FF00BD0000FFFFE00C004010B5FFF761
:10061000E9FF002000F050FB002000F05FFB03200A
:1006200000F0F2FA00F0D1FB00F0E3FB00F053FC25
:100630000121BC4800F05CFA0221BA4800F058FAE7
:100640000421B84800F054FA0821B64800F050FAE6
:100650001021B44800F04CFA2021B24800F048FACA
:100660004021B04800F044FA8021AE4800F040FA42
:10067000FF210131AB4800F03BFA01214902A948B2
:1006800000F036FA01218902A64800F031FA012172
:10069000C902A44800F02CFA01210903A14800F086
:1006A00027FA012149039F4800F022FA012189031A
:1006B0009C4800F01DFA0121C9039A4800F018FA7D
:1006C00001219848203000F013FA0221954820308B
:1006D00000F00EFA04219348203000F009FA0821B6
:1006E0009048203000F004FA10218E48203000F0AD
:1006F000FFF920218B48203000F0FAF94021894889
:10070000203000F0F5F980218648203000F0F0F923
:10071000FF2101318348203000F0EAF9012149022C
:100720008048203000F0E4F9012189027D48203022
:1007300000F0DEF90121C9027A48203000F0D8F932
:10074000012109037748203000F0D2F90121490343
:100750007448203000F0CCF9012189037148203021
:1007600000F0C6F90121C9036E48203000F0C0F93D
:1007700004216C48403000F0BBF908216948403042
:1007800000F0B6F910216748403000F0B1F920219F
:100790006448403000F0ACF940216248403000F03D
:1007A000A7F980215F48403000F0A2F9FF21013114
:1007B0005C48403000F09CF9012149025948403022
:1007C00000F096F9012189025648403000F090F976
:1007D0000121C9025348403000F08AF90121090380
:1007E0005048403000F084F9012149034D48403021
:1007F00000F07EF9012189034A48403000F078F981
:100800000121C9034748403000F072F901214548F1
:10081000603000F06DF902214248603000F068F964
:1008200004214048603000F063F908213D48603001
:1008300000F05EF910213B48603000F059F92021AA
:100840003848603000F054F940213648603000F0FC
:100850004FF980213348603000F04AF904213148D3
:10086000803000F045F908212E48803000F040F932
:1008700010212C48803000F03BF908212948A03095
:1008800000F036F910212748A03000F031F920217E
:100890002448A03000F02CF940212248A03000F07C
:1008A00027F90121C9021F48A03000F021F90121D8
:1008B00009031C48A03000F01BF901214903194825
:1008C000A03000F015F9012189031648A03000F08E
:1008D0000FF90121C9031348A03000F009F90421E0
:1008E0001048C03000F004F908210E48C03000F074
:1008F000FFF840210B48C03000F0FAF88021094889
:10090000C03000F0F5F80022FF2101310548C03069
:10091000FFF70CFE0022012149020248C030FFF718
:1009200005FE10BD000C004010B501216F4800F01D
:10093000DFF802216D4800F0DBF8FF2101316B4840
:10094000203000F0D5F8012149026848203000F03D
:10095000CFF8012189026548203000F0C9F8012153
:10096000C9026248203000F0C3F8012109035F4842
:10097000203000F0BDF8012149035C48203000F030
:10098000B7F8012189035948203000F0B1F801215E
:10099000C9035648203000F0ABF8012153484030DD
:1009A00000F0A6F802215148403000F0A1F82021C3
:1009B0004E48403000F09CF840214C48403000F058
:1009C00097F880214948403000F092F8FF2101312A
:1009D0004648403000F08CF801214902434840303D
:1009E00000F086F8012189024048403000F080F88C
:1009F0000121C9023D48403000F07AF80121090385
:100A00003A48403000F074F801214903374840303B
:100A100000F06EF8012189033448403000F068F896
:100A20000121C9033148403000F062F801212F480C
:100A3000603000F05DF802212C48603000F058F87A
:100A400004212A48603000F053F8802127486030A4
:100A500000F04EF8FF2101312448603000F048F8E2
:100A6000012149022148603000F042F80121890249
:100A70001E48603000F03CF801211C48803000F036
:100A800037F802211948803000F032F81021174859
:100A9000803000F02DF820211448803000F028F834
:100AA000012189021148803000F022F80121C90299
:100AB0000E48803000F01CF8012109030B488030FB
:100AC00000F016F8012149030848803000F010F8C2
:100AD000012189030548803000F00AF80121C9038B
:100AE0000248803000F004F810BD0000400C0040C7
:100AF0007CB504460D466A462946204600F092F829
:100B000068460079012809D02946204600F058F9A6
:100B100001222946204600F0FDFB08E0012229467B
:100B2000204600F0F7FB2946204600F049F97CBD3D
:100B30000146054A1068800880008A07920F10431A
:100B4000014A106070470000001000400146054A4D
:100B5000106840084000CA07D20F1043014A1060D5
:100B600070470000000D00400146064A106802234D
:100B700002469A43104602220A401043014A10607E
:100B800070470000000D00400146064A106804232B
:100B900002469A43104604220A401043014A10605C
:100BA00070470000000D00400146064A1068082307
:100BB00002469A43104608220A401043014A106038
:100BC00070470000000D00400146064A10681023DF
:100BD00002469A43104610220A401043014A106010
:100BE00070470000000D00400146064A10682023AF
:100BF00002469A43104620220A401043014A1060E0
:100C000070470000000D00400146054A906B000946
:100C100000010A07120F1043014A90637047000059
:100C2000C00C0040F0B504460025002307E0012673
:100C30009E400E403546002D00D002E05B1C102B7C
:100C4000F5D300BF102B36D21D46116026680E402A
:100C50003046E840012802D10126D67101E0002685
:100C6000D67166680E40EE403046012801D196717B
:100C700001E000269671A6680E40EE40304601283D
:100C800001D1567101E000265671E6686F00FE4002
:100C9000B007800F002802D1002616710BE0012852
:100CA00002D10126167106E0022802D10226167131
:100CB00001E003261671F0BD012806D10649C96B73
:100CC00001221143044AD16305E00349C96B490875
:100CD0004900014AD1637047C00C0040012806D189
:100CE0000649C96B02221143044AD16305E0034956
:100CF000C96B02229143014AD1637047C00C004086
:100D0000012907D1074A5268012383401A43054B42
:100D10005A6006E0034A5268012383409A43014B1C
:100D20005A607047000D0040F0B502460B460021A6
:100D30000024002500BF2DE001268E4034461E68A9
:100D400026403546A54224D110680646A6433046C3
:100D5000DE798E403043106050680646A643304628
:100D60009E798E403043506090680646A6433046D8
:100D70005E798E40304390604F000326BE4034467B
:100D8000D0680646A64330461E794F00BE40304329
:100D9000D060491C1029CFD3F0BD0000012905D136
:100DA000054A92680243044B9A6004E0024A926842
:100DB0008243014B9A607047000D0040816170478B
:100DC000416170478AB20261704710B50020FFF799
:100DD0000BFF0020FFF7F8FE0020FFF7E5FE0020E4
:100DE000FFF7D2FE0020FFF7BFFE0020FFF7AEFEA8
:100DF00010BD10B500210120C005FFF781FF0021C3
:100E000001208005FFF77CFF002101204005FFF74E
:100E100077FF002101200005FFF772FF002101206C
:100E2000C004FFF76DFF002101208004FFF768FF79
:100E3000002101204004FFF763FF0021012000048E
:100E4000FFF75EFF00210120C003FFF759FF0021DB
:100E500001208003FFF754FF002101204003FFF72A
:100E60004FFF002101200003FFF74AFF002101206E
:100E7000C002FFF745FF002101208002FFF740FF7D
:100E8000002101204002FFF73BFF0021FF2001303D
:100E9000FFF736FF00218020FFF732FF00214020BE
:100EA000FFF72EFF00212020FFF72AFF002110204E
:100EB000FFF726FF00210820FFF722FF0021042072
:100EC000FFF71EFF00210220FFF71AFF002101207B
:100ED000FFF716FF10BD10B500218020FFF75EFF61
:100EE00000214020FFF75AFF00212020FFF756FF86
:100EF00000211020FFF752FF00210820FFF74EFFCE
:100F000000210420FFF74AFF00210220FFF746FFDF
:100F100000210120FFF742FF10BD000001480249F7
:100F2000086070475A5A3412001401400146054ABD
:100F30005068800880008A07920F1043014A506071
:100F40007047000000140140012806D10649496895
:100F500004221143044A516005E003494968042210
:100F60009143014A516070470014014010B50121BE
:100F7000054800F043FAFFF7D1FF0320FFF7D6FF43
:100F80000020FFF7E1FF10BD0500000110B50121B1
:100F90000748FFF715FF00220121054800F0BAF9C4
:100FA000002240210248603000F0B4F910BD00007A
:100FB000600C00401FB5FF20F4300090002002902C
:100FC000019069460873684600F094FA002000F02A
:100FD00059FA1FBD10B500211048FFF7F3FE00219C
:100FE0000E482030FFF7EEFE00210C484030FFF79E
:100FF000E9FE002109486030FFF7E4FE00210748C0
:101000008030FFF7DFFE00210448A030FFF7DAFE52
:1010100000210248C030FFF7D5FE10BD000C004093
:1010200010B50121604800F0E9F901215E4815384A
:1010300000F0E4F901215C48163800F0DFF90121E5
:101040005948173800F0DAF901215748183800F0EC
:10105000D5F901215448193800F0D0F9012152483E
:101060001A3800F0CBF901214F481B3800F0C6F9BF
:1010700001214D481C3800F0C1F901214A481D38B2
:1010800000F0BCF9012148481E3800F0B7F90121F1
:10109000080600F0B3F90121444800F0AFF901213E
:1010A0004248401E00F0AAF900214048801E00F08E
:1010B000A5F900213D48C01E00F0A0F901213B48E0
:1010C000001F00F09BF901213848401F00F096F9FD
:1010D00001213648801F00F091F901213348C01FDB
:1010E00000F08CF90121480600F088F90121304810
:1010F00000F084F901212E48C01F00F07FF9012182
:101100002B48083800F07AF9012129480A3800F004
:1011100075F9012126480B3800F070F901212448A7
:101120000C3800F06BF9012121480D3800F066F908
:1011300001211F480E3800F061F901211C480F38C9
:1011400000F05CF901211A48103800F057F901212C
:101150001748163800F052F901211548173800F0E9
:101160004DF901210320000600F048F90121114842
:1011700000F044F901210F48401E00F03FF9012121
:101180000C48801E00F03AF901210A48C01E00F008
:1011900035F901210748001F00F030F901218806C8
:1011A00000F02CF910BD00001F0000010800000233
:1011B000180000030500000400B587B0002005906A
:1011C00001216846017605A800F0CEF900200090C4
:1011D000019002900390012168460174002141743E
:1011E00000F030FA07B000BD10B50020FFF7A0FCFA
:1011F000FFF7E0FEFFF7E0FFFFF712FF002000F02F
:10120000EFF80120FFF770F90120FFF77DF90120C9
:1012100000F02DFA10BD000010B501242406601E58
:101220000146884200D90CE0601E0849486103214C
:10123000081F00F033F80020044988610720086186
:1012400000BF05200149086110BD000000E000E07A
:1012500010B572B6FFF78AFEFFF760FEFFF7DCFFFE
:1012600000210A2000F012FBFFF7BEFF012000F072
:101270008BF8FFF7AFFEFFF757FBFFF7C7F9FFF754
:1012800085FE0021642000F001FB01210248FFF7E8
:1012900095FD62B610BD0000600C004010B500283E
:1012A00019DB1A4A03231B02D21883089B00D25869
:1012B0008307DC0EFF23A3409A438B071B0E840792
:1012C000E40EA3401A43114B032424021B19840883
:1012D000A4001A5118E00E4A03071B0F083B9B0895
:1012E0009B00D2588307DC0EFF23A3409A438B0751
:1012F0001B0E8407E40EA3401A43054B0407240F7A
:10130000083CA408A4001A5110BD000000E100E050
:101310001CED00E07FB506460D4614466A46294698
:101320003046FFF77FFC0098A84217D16846C07985
:10133000002813D1002C03D16846407900280DD134
:10134000012C03D168464079012807D1684680798D
:10135000002803D168460079012813D002950020A7
:101360006946C873002C01D1487302E00120694628
:1013700048730021684681730121017302A9304638
:10138000FFF7D2FC7FBD000010B50446012C02D14E
:101390001248036813E0022C03D110484038C36B95
:1013A0000DE0032C03D10D484038836B07E0042C7B
:1013B00003D10A484038436B01E008480368180C21
:1013C000D94389B2884204D15806400E00F0C4F8CF
:1013D00002E0402000F0C0F810BD000040FDFF1FFB
:1013E0000146054A506840084000CA07D20F104322
:1013F000014A5060704700004002004030B502468C
:101400000B4600200F2424061440FF252D066419E6
:10141000002C09D06419002C08D06419002C08D0C5
:101420006419002C0BD107E00D4809E00C48001DA1
:1014300006E00B48083003E009480C3000E000BF2C
:1014400000BF00280BD0D2B201219140002B03D065
:1014500004680C43046002E004688C43046030BDFF
:10146000280200400146054A9069054A1040D243CF
:101470000A401043014A906170470000000200409A
:10148000FFFF00FC012806D10649896901221143AA
:10149000044A916105E00349896949084900014A04
:1014A00091617047000200400146064A9069062398
:1014B00002469A43104606220A401043014A9061B0
:1014C00070470000000200400146064A9069082368
:1014D00002469A43104608220A401043014A90618E
:1014E000704700000002004000B503461804FFF7F3
:1014F000B9FF00BD10B504462068FFF7F5FF60682E
:10150000FFF7E2FFA068FFF7CFFF207BFFF7BAFFEE
:1015100010BD00000146064A106903231B04024661
:101520009A4310461A460A401043014A1061704718
:1015300000020040012806D1064909690122114331
:10154000044A116105E00349096949084900014A53
:1015500011617047000200404106490E014A516185
:10156000704700000002004010B504462068FFF7F5
:10157000D1FF2079FFF7DEFF10BD00000146064ACB
:10158000D06807231B0202469A4310461A460A40B7
:101590001043014AD0607047000200400146064AED
:1015A000D06807231B0402469A4310461A460A4095
:1015B0001043014AD0607047000200400146064ACD
:1015C000D068D30302469A4310461A460A40104395
:1015D000014AD0607047000000020040012806D197
:1015E0000649C968C2071143044AD16005E00349AE
:1015F000C96849004908014AD160704700020040AB
:10160000012806D10749C96842061143054AD1603D
:1016100006E00449C968012252069143014AD1609B
:1016200070470000000200400146054AD06880086B
:1016300080008A07920F1043014AD0607047000073
:101640000002004010B504462068FFF7EDFF606817
:10165000FFF794FFA068FFF7A1FFE068FFF7AEFF78
:10166000207CFFF7CDFF607CFFF7B8FF10BD10B501
:101670000446012C05D100F09BF8012000F086F80B
:1016800005E0002000F094F8002000F07FF8002032
:1016900000F06AF8002000F055F8002000F040F853
:1016A000002000F02BF8002000F016F8002000F0D9
:1016B00001F810BD012806D18107496802021143D3
:1016C0008207516007E0012189074968FF22013242
:1016D0009143920551607047012806D181074968FE
:1016E000420211438207516007E0012189074968DE
:1016F000012252029143520551607047012806D1E0
:1017000081074968820211438207516007E0012185
:10171000890749680122920291431205516070477E
:10172000012806D181074968C2021143820751602E
:1017300007E00121890749680122D2029143D204BE
:1017400051607047012806D181074968020311439F
:101750008207516007E001218907496801221203CD
:101760009143920451607047012806D1810749686E
:10177000420311438207516007E00121890749684C
:10178000012252039143520451607047012806D14F
:1017900081074968012211438207516007E0012156
:1017A000890749684908490001229207516070473A
:1017B000012806D18107496802221143820751603E
:1017C00006E00121890749680222914352075160CE
:1017D0007047000010B5FEF7D9FC044601F01CFA72
:1017E000002803D001200007024948602046FEF788
:1017F000D1FC10BD00ED00E00148024908607047CF
:1018000000127A006C00002000BFFFF787FB012167
:101810000848FFF7D3FA0021FF202D3000F036F8FA
:1018200001210448FFF7CCFA0021FF202D3000F001
:101830002DF8EAE7600C004000BFFFF76FFB402186
:101840000748FFF7BBFA0021C82000F01FF840212D
:101850000348FFF7B5FA0021C82000F017F8ECE7BD
:10186000C00C0040084A916900BF0F221205904247
:1018700000D9104600BF044A92698A1A1202120A5D
:101880008242F8D37047000000E000E070B50446E3
:101890000D467D26B60109E0002D03D0A84700289B
:1018A00000D070BD3046FFF7DDFF641E002CF3D181
:1018B00000BFF6E730B47446641E2578641CAB4262
:1018C00004D3635D5B00E31830BC18471D46F8E79E
:1018D0001CB5FFF723FBFFF7BBFC002001210346EB
:1018E0007D22D2000091019009A10A4801F04EF931
:1018F0000020012103467D22D2000091019006A123
:10190000074801F043F900F023FE00201CBD000051
:101910006C656400091800006C656431000000000B
:1019200039180000F8B505460E46174807681748ED
:101930000068001D00F0ECFC681C002808D1002E97
:1019400006D012480168091D114800F027FD1AE071
:101950007C190E4800684460BC4207D20B480168FD
:10196000091D0C48006800F0FEFC0CE00748016807
:10197000091D0948006800F0F6FC08480068844228
:1019800001D206480460F8BD1400002000000020C9
:101990002401002008000020040000203000002066
:1019A00010B5044600F006FD22480068401C21499D
:1019B000086021480068002808D11F4804600846D4
:1019C000006801280ED100F0A7F90BE01B48006861
:1019D000002807D118480068C06AE16A884201D827
:1019E0001548046016480068401C15490860084600
:1019F0000068E0631349E06A0968884202D9114926
:101A0000E06A08601422E16A51430F4A8818211DD8
:101A100000F0C4FC00F0DCFC08480068002807D097
:101A200005480068C06AE16A884201D200F006FDFC
:101A300010BD000010000020000000201C0000204D
:101A40002C000020180000207000002010B500F0CD
:101A5000B1FC1148006800281BD1104800F073FC4D
:101A60000F4800F070FC0D480E4908600C480E4904
:101A7000086000220C21052000F024FE06490860C1
:101A800008460068002804D008A10348006800F058
:101A9000E1FC00F09DFC10BD60000020702C0020D7
:101AA000842C0020580000205C000020546D7251EE
:101AB0000000000010B516E000F07CFC0C48C06887
:101AC000C468201D00F024FC0A480068401E094933
:101AD000086009480068401E0749086000F078FC6B
:101AE000204600F061F8044800680028E4D110BDE9
:101AF00010010020100000200C00002070B50446EA
:101B00000D46206C00280ED0216CE0684018E06083
:101B10006168E068884201D32068E0602846226C52
:101B2000E168FEF793FB70BDF8B504460F46154615
:101B300000200090A66B206C002809D120680028A6
:101B40002ED1606801F00EF900900020606027E05F
:101B5000002D0FD13946226CA068FEF777FB216C6F
:101B6000A0684018A0606168A068884218D3206807
:101B7000A06015E03946226CE068FEF767FB216C37
:101B8000E068401AE0602168E068884203D2216C76
:101B90006068401AE060022D02D1002E00D0761E4F
:101BA000701CA0630098F8BD10B50446206B00F0CF
:101BB00023FC204600F020FC10BD00000146094A2D
:101BC00012681268002A01D1012200E000220A6096
:101BD0000A68002A04D1034A1268D268106800E03B
:101BE0000020704758000020094AD008C000094A68
:101BF00010600022074B5A60074A084B5A600022C7
:101C00001A600146044A4A601A460A60704700009A
:101C10008001002040000020F02A00004800002041
:101C200000BFFFF747FF034800680128F9D900F01B
:101C300005FCF6E770000020FFB581B006460D46B2
:101C400017460A9C002D01D1246000E02760E6635E
:101C500025640121204600F05DFD502104980855BF
:101C60000020A06405B0F0BDFFB581B00F460A9E0C
:101C70000C9C039A9100A522206BFEF728FB216B98
:101C80000398401E8000081800900098C008C0000B
:101C9000009000984007400F002801D1012000E08B
:101CA0000020002802D172B600BFFEE7002508E040
:101CB000795D204634304155785D002800D102E03E
:101CC0006D1C052DF4D300BF002138200155052ED1
:101CD00000D30426E66266640020A064201D00F0A4
:101CE0003FFB2046183000F03BFB24610520801BA1
:101CF000A06164620020E064002150200155049A34
:101D00000199009800F0F4FA20600B98002801D0A7
:101D10000B98046005B0F0BD10B5002406E0142156
:101D200061430E4A881800F00EFB641C052CF6D3A4
:101D30000B4800F008FB0B4800F005FB0A4800F0D8
:101D400002FB0A4800F0FFFA094800F0FCFA0448D8
:101D50000849086003480849086010BD7000002069
:101D6000D4000020E8000020FC000020100100202A
:101D7000240100200400002008000020F8B50446DB
:101D80000D4616461F460020009065602461B5424E
:101D90000CD8F01BA169884202D30120009011E009
:101DA000211D0948006800F0DEFA0BE0BE4204D2B3
:101DB000BD4202D30120009004E0211D03480068C9
:101DC00000F0D1FA0098F8BD5C0000205800002017
:101DD00070B5054600F0EEFAA86B002801D1012489
:101DE00000E0002400F0F4FA204670BD70B505460E
:101DF00000F0E0FAA86BE96B884201D1012400E011
:101E0000002400F0E5FA204670BDF3B581B00D4620
:101E10000198846C0027002C02D172B600BFFEE747
:101E2000A06BE16B884201D2012000E00020002875
:101E300002D172B600BFFEE7A06BE16B88421FD2F1
:101E4000452006572A4601A92046FFF76DFE0746A2
:101E5000701C00280FD1606A002801D1012000E029
:101E6000002000280BD12046243000F0BFFF0028BE
:101E700005D0012703E0701C41B24520015500BF89
:101E80003846FEBDF8B505460F4613480068C068E1
:101E9000C468201D00F03CFAE069012817D1A06950
:101EA00041192B463A462046FFF768FF00280ED01E
:101EB000002003462A4601460090204601F076F8AD
:101EC0000646002E02D172B600BFFEE700BF2046D4
:101ED000616A8847F8BD00005800002070B586B0E0
:101EE00060E0039800285DDB059C6069002801D153
:101EF000012000E00020002802D1201D00F008FA97
:101F000002A800F0ADF8054603980300FFF7D2FCE5
:101F10000A0A06082C2E4407092D2F4800BF00BFCF
:101F200000BF00BF0498A269811803462A462046D4
:101F3000FFF724FF002816D02046616A8847E06931
:101F4000012810D1002000900498A16942180023B4
:101F50001946204601F02AF80646002E02D172B634
:101F600000BFFEE700BF1CE000BF1AE000BF0498FE
:101F7000A061A069002801D0012000E00020002815
:101F800002D172B600BFFEE7A06941192B462A466E
:101F90002046FFF7F3FE04E0204600F02DFA00E0B3
:101FA00000BF00BF002203A90348006800F018FD2D
:101FB000002896D106B070BD60000020F8B5054637
:101FC0000C4600F001FB684600F04AF8064600980F
:101FD000002822D1002C08D1B54206D800F04AFFD3
:101FE00031462846FFF74EFF19E0002C08D00C4878
:101FF00000680068002801D1012000E000200446AC
:10200000A91B22460748006800F03AFA00F032FFA8
:10201000002804D100F012FA01E000F02BFFF8BD17
:102020005C000020600000200B4909680968002955
:1020300001D1012100E00021002904D00021C94381
:10204000064A116006E004490968C968C868034A7D
:10205000416811607047000004000020300000203B
:1020600070B5044600F0D2FD054607480068854279
:1020700004D200F021F80120206001E0002020605F
:1020800001480560284670BD6800002010B500209A
:10209000074908618861FF21F53106480068FEF7AD
:1020A0001FF9401E024948610720086110BD000069
:1020B00000E000E06C000020FEB52BE02048006846
:1020C000C06805681E480068C068C468201D00F02C
:1020D0001FF92046616A8847E06901281AD1A06982
:1020E0004619AE4207D966602461211D1448006874
:1020F00000F039F90EE0002003462A460146009020
:10210000204600F053FF0746002F02D172B600BFF1
:10211000FEE700BF0A4800680068002801D10120DE
:1021200000E000200028C9D005480068019005485B
:10213000006803490860034901980860FEBD00007B
:10214000580000205C00002007480068401C002860
:1021500001D1012000E00020002802D172B600BFAA
:10216000FEE772B600BFFEE73C00002008B500BFE6
:102170006846FFF723FD044620460099FFF71EFF3F
:10218000FFF7ACFEF4E770B5044600F013F9452004
:1021900005571FE0A06C002808D000212046FFF75B
:1021A00034FE002814D000F09DF911E0606A002888
:1021B00001D1012000E00020002808D12046243071
:1021C00000F014FE002803D000F08CF900E003E0DA
:1021D000681E45B2002DDDDC00BF0021C94345204B
:1021E000015500F0F5F800F0E5F84420055713E03C
:1021F0002069002801D1012000E0002000280AD138
:102200002046103000F0F2FD002801D000F06AF9FD
:10221000681E45B200E001E0002DE9DC00BF0021AE
:10222000C9434420015500F0D3F870BDF8B5044609
:102230000020009000F0C8F928480068002804D168
:10224000FFF7D2FC012025490860002C09D0083492
:102250006007400F002804D06007400F0821081ACB
:102260000419002C31D01E4884422ED21D4F38460E
:10227000056801E02F462D686868A04202D22868F0
:102280000028F7D1184885421FD0386808300090E0
:10229000286838606868001B102810D92E196868F3
:1022A000001B70606C6071680E4800E00068026896
:1022B00052688A42FAD302683260066000BF0B4956
:1022C00068680968081A0949086000F0D3FD009899
:1022D000002801D100F030F80098F8BD540000202B
:1022E000F02A00004000002048000020500000209C
:1022F000001F01231B060360001F0160001F034B2A
:102300000360143802602038704700004921000043
:1023100001460A694B68886898608B68486858600D
:102320005068884201D188685060002008611068B8
:10233000401E10601068704772B600BFFEE772B6AC
:1023400000BFFEE770470146083141600021C943E4
:10235000816001460831C160016100210160704760
:1023600000210161704710B502460B685C1C002C0F
:1023700001D1106907E01046083000E04068446869
:1023800024689C42FAD944684C604C68A16088601B
:1023900041600A611468641C146010BD42684A60A0
:1023A00093688B60936859609160086103685B1C57
:1023B0000360704772B605480068401C0349086016
:1023C000BFF34F8FBFF36F8F704700003C000020BA
:1023D00008480068002802D172B600BFFEE7054831
:1023E0000068401E0349086008460068002800D1C4
:1023F00062B670473C00002070B506463546002E98
:1024000016D0083D2C4600F0DFF86168094800E06E
:102410000068026852688A42FAD302682260046047
:1024200005496068096840180349086000F022FD0A
:1024300070BD000040000020500000200120000777
:1024400003494860BFF34F8FBFF36F8F70470000A1
:1024500000ED00E010B5024600200BE0C300074C81
:10246000E358002B05D1C300E150C3001B195A608B
:1024700002E0401C0828F1D300BF10BD3801002045
:10248000F8B505460E4617462C46FFF793FF442144
:102490000857401C002802D1002144200155452145
:1024A0000857401C002802D1002145200155FFF7A4
:1024B0008FFFA06B002805D13A46314620462430D4
:1024C00000F02CF82046FFF75EFEF8BD03490968CE
:1024D000016003490968416070470000280000203E
:1024E00014000020012001490860704724000020EA
:1024F00070B504460D46002C02D172B600BFFEE74F
:102500000548016818312046FFF72DFF01212846B4
:10251000FFF708FA70BD00000000002070B5054606
:102520000E461446002D02D172B600BFFEE70748E2
:10253000016818312846FFF731FF002C01D0002632
:10254000F64321463046FFF7EDF970BD000000204C
:102550001CB5164800210B463C220091019014A1A5
:10256000154800F013FB0446012C02D100F0FAFCE0
:102570000446012C0DD172B60020C0430F490860FB
:1025800001200F49086000200E49086000F07EF825
:102590000AE0601C002801D0012000E00020002893
:1025A00002D172B600BFFEE71CBD0000340000205F
:1025B00049444C4500000000211C00003000002070
:1025C0001C0000201400002002480068401C014943
:1025D000086070473800002070B526480068002861
:1025E00003D001202449086043E00020224908600C
:1025F00022480068046B224D29462068884208D191
:102600006068884205D1A068884202D1E0688842AB
:1026100005D01A48016834310068FFF790FE194868
:10262000016805E0002902D172B600BFFEE7491E2D
:1026300014204843144A1058002801D1012000E01A
:1026400000200028EED114224A430F4BD0184268D4
:1026500052684260024608324368934202D142689F
:10266000526842604268D268044B1A6005480160B3
:1026700000BF70BD380000202400002000000020B2
:10268000A5A5A5A5180000207000002010B50B48D6
:10269000006AFF2109040843084908620846006AE5
:1026A000FF210906084305490862FFF7EFFC0020F7
:1026B00003490860FDF756FD002010BD00ED00E065
:1026C0003C000020F7B582B005460E46002D01D033
:1026D000012000E00020002802D172B600BFFEE712
:1026E000002E01D1002701E02F46774338465430B1
:1026F000FFF79CFD0446002C09D020465430019081
:10270000009431462846049B019AFFF795FA20462B
:1027100005B0F0BD70B505460E462C46002C02D122
:1027200072B600BFFEE7FFF745FE216CE06B484341
:102730002168401860600020A0632068A060E06B02
:10274000401E216C484321684018E0600021C943C5
:102750004420015545200155002E10D12069002844
:1027600001D1012000E00020002810D120461030C7
:1027700000F03CFB00280AD0FFF760FE07E020468F
:102780001030FFF7E0FD20462430FFF7DCFDFFF7B7
:102790001FFE012070BDFFB583B006461D46002018
:1027A00002903446002C02D172B600BFFEE70498B6
:1027B000002802D1206C002801D1012000E0002077
:1027C000002802D172B600BFFEE7022D02D1E06BF5
:1027D000012801D1012000E00020002802D172B6BA
:1027E00000BFFEE700F000FA002802D1059800289B
:1027F00001D1012000E00020002802D172B600BF04
:10280000FEE700BFFFF7D6FDA06BE16B884201D366
:10281000022D2BD12A4620460499FFF785F9074659
:10282000A06C002808D029462046FFF7EEFA0028C1
:1028300017D0FFF703FE14E0606A002801D10120E1
:1028400000E00020002808D12046243000F0CEFA15
:10285000002806D0FFF7F2FD03E0002F01D0FFF7BC
:10286000EDFDFFF7B5FD012007B0F0BD059800288C
:1028700003D1FFF7ADFD0020F6E70298002804D150
:102880006846FFF723FE01200290FFF7A1FDFFF746
:102890009BFEFFF78FFD44210857401C002802D102
:1028A00000214420015545210857401C002802D131
:1028B000002145200155FFF78BFD05A9684600F072
:1028C0002BF9002819D12046FFF790FA00280ED0E6
:1028D000204610300599FFF70BFE2046FFF753FC0A
:1028E00000F0C8FA00288DD1FFF7A8FD8AE720463E
:1028F000FFF749FC00F0BEFA84E72046FFF743FCEF
:1029000000F0B8FA0020AFE7FFB583B007461546E0
:102910001E463C46002C02D172B600BFFEE704986A
:10292000002802D1206C002801D1012000E0002005
:10293000002802D172B600BFFEE7022E02D1E06B82
:10294000012801D1012000E00020002802D172B648
:1029500000BFFEE7FDF71AFC0190A06BE16B884217
:1029600001D3022E34D14520015700913246204632
:102970000499FFF7D9F80098401C002820D1A06CDA
:1029800000280AD031462046FFF73FFA00281CD025
:10299000002D1AD00120286017E0606A002801D1BC
:1029A000012000E0002000280FD12046243000F054
:1029B0001DFA002809D0002D07D00120286004E06E
:1029C0000098401C41B2452001550120029001E0D1
:1029D000002002900198FDF7DDFB029807B0F0BDE2
:1029E000F7B584B005460E46002003902C46002C17
:1029F00002D172B600BFFEE7002E02D1206C002883
:102A000001D1012000E00020002802D172B600BFF1
:102A1000FEE700F0E9F8002802D10698002801D16D
:102A2000012000E00020002802D172B600BFFEE7BE
:102A300000BFFFF7BFFCA76B002F1AD0314620461E
:102A4000FFF75CF8781EA0632069002801D10120FF
:102A500000E00020002807D12046103000F0C6F921
:102A6000002801D0FFF7EAFCFFF7B2FC012007B015
:102A7000F0BD0698002803D1FFF7AAFC0020F6E776
:102A80000398002804D101A8FFF720FD012003903E
:102A9000FFF79EFCFFF798FDFFF78CFC44210857D9
:102AA000401C002802D1002144200155452108572F
:102AB000401C002802D1002145200155FFF788FC69
:102AC00006A901A800F028F8002819D12046FFF730
:102AD0007FF900280ED0204624300699FFF708FD24
:102AE0002046FFF750FB00F0C5F90028A1D1FFF701
:102AF000A5FC9EE72046FFF746FB00F0BBF998E7F0
:102B00002046FFF740FB00F0B5F92046FFF760F9DB
:102B100000288ED00020AAE770B505460C46002D8F
:102B200002D172B600BFFEE7002C02D172B600BF20
:102B3000FEE7FFF73FFC134802686868131A206835
:102B4000401C002801D1002617E00F4928680968B9
:102B5000884204D06868904201D801260DE02068C0
:102B6000984207D92068C01A20602846FFF7AEFCBB
:102B7000002602E0002020600126FFF729FC3046F5
:102B800070BD00001400002028000020FFB585B0B3
:102B90001746B800FFF74AFB0646002E0BD054201C
:102BA000FFF744FB0446002C01D0266304E03046C6
:102BB000FFF722FC00E00024002C10D000220F9927
:102BC0000E986B4613C303923A46089B06990598E4
:102BD000FFF74AF82046FEF7E3FE012501E0002555
:102BE000ED43284609B0F0BD06490968002901D126
:102BF000012006E004490968002901D1022000E013
:102C0000002070471C00002038000020014908689F
:102C10007047000014000020F8B5002000904648DE
:102C20000068002878D145480068451C4348056085
:102C3000002D1CD1424800680068002801D1012005
:102C400000E00020002802D172B600BFFEE73C4839
:102C500007683C4800683A4908603A4807603A48C3
:102C60000068401C38490860FFF7DEF900BF3748AC
:102C7000006885423DD300BF3148006800680028E5
:102C800001D1012000E00020002804D00020C04332
:102C90002E4908602CE02A480068C068C46866684D
:102CA000B54202D22948066022E0201DFFF730FB22
:102CB000A06A002803D020461830FFF729FB2449DA
:102CC000E06A0968884202D92149E06A0860142252
:102CD000E16A51431F4A8818211DFFF75FFB1E4917
:102CE000E06A0968C96A8842C6D301200090C3E738
:102CF00000BF19480068C06A1421484315490858A4
:102D0000012801D90120009014480068002801D151
:102D1000FFF718FB07E0FFE710480068401C0F4969
:102D20000860FFF70FFB0E480068002801D0012063
:102D300000900098F8BD000038000020140000202A
:102D4000040000200800002028000020300000209F
:102D5000180000207000002000000020200000204B
:102D60002400002070B505462C460026002D35D0E5
:102D70001B480068844201D1012000E000200028A7
:102D800002D172B600BFFEE7A06C002802D172B675
:102D900000BFFEE7A06C401EA064616CE06A884240
:102DA0001CD0A06C002819D1201DFFF7B1FA606C6F
:102DB000E0620521E06A081AA0610A49E06A096830
:102DC000884202D90749E06A08601422E16A514347
:102DD000054A8818211DFFF7E1FA0126304670BD2B
:102DE00000000020180000207000002070B506468A
:102DF000F068C468002C02D172B600BFFEE720461E
:102E00001830FFF785FA15480068002813D1201DF7
:102E1000FFF77EFA1249E06A0968884202D9104930
:102E2000E06A08601422E16A51430E4A8818211DA5
:102E3000FFF7B4FA04E0214618310B48FFF7AEFA69
:102E40000A49E06A0968C96A884204D90125012053
:102E50000749086000E00025284670BD38000020C2
:102E60001800002070000020FC000020000000205E
:102E70002400002070B50024002632480068002895
:102E800002D172B600BFFEE7FFF794FA2D48006842
:102E9000401E2C4908600846006800284DD12A4889
:102EA0000068002849D022E02848C068C46820464D
:102EB0001830FFF72DFA201DFFF72AFA2449E06A9F
:102EC0000968884202D92249E06A08601422E16A4E
:102ED0005143204A8818211DFFF760FA1E49E06A15
:102EE0000968C96A884202D301201C490860174852
:102EF0000068002801D1012000E000200028D3D084
:102F0000002C01D0FFF790F815480568002D0DD072
:102F100000BFFFF781FE002802D001200F490860A2
:102F20006D1E002DF5D100200D4908600B4800688A
:102F3000002802D00126FFF781FAFFF749FA304650
:102F400070BD00003800002010000020FC000020B0
:102F50001800002070000020000000202400002045
:102F6000200000201CB50024FEF770FD0A48006810
:102F700000280AD009480221002350220091019024
:102F800007A10948FFF702FE0446002C02D172B6E1
:102F900000BFFEE720461CBD60000020640000204A
:102FA000546D7220537663006D210000F0B585B03A
:102FB00004460D4616461F4600200390002C02D101
:102FC00072B600BFFEE715480068002822D00095C1
:102FD00001960294062D15DAFFF706FE022808D1A5
:102FE000002369460D480A9A0068FFF7D4FB039056
:102FF00010E000231A46694608480068FFF7CBFB3B
:10300000039007E000233A46694604480068FFF74A
:103010007BFC0390039805B0F0BD00006000002029
:10302000403000000000002070000000040100009B
:10303000B030000070000020883E00002001000039
:103040000000000000000000000000000000000080
:103050000000000000000000000000000000000070
:103060000000000000000000000000000000000060
:10307000000000000000000000000000AAAAAAAAA8
:103080000000000000000000000000000000000040
:10309000F02A000000000000000000000000000016
:1030A00000000000000000000000000000127A0094
:04000005000000C136
:00000001FF
